{
  "contractName": "Voting",
  "abi": [
    {
      "anonymous": false,
      "inputs": [
        {
          "indexed": true,
          "internalType": "address",
          "name": "previousOwner",
          "type": "address"
        },
        {
          "indexed": true,
          "internalType": "address",
          "name": "newOwner",
          "type": "address"
        }
      ],
      "name": "OwnershipTransferred",
      "type": "event"
    },
    {
      "anonymous": false,
      "inputs": [
        {
          "indexed": false,
          "internalType": "uint256",
          "name": "proposalId",
          "type": "uint256"
        }
      ],
      "name": "ProposalRegistered",
      "type": "event"
    },
    {
      "anonymous": false,
      "inputs": [],
      "name": "ProposalsRegistrationEnded",
      "type": "event"
    },
    {
      "anonymous": false,
      "inputs": [],
      "name": "ProposalsRegistrationStarted",
      "type": "event"
    },
    {
      "anonymous": false,
      "inputs": [
        {
          "indexed": false,
          "internalType": "address",
          "name": "voter",
          "type": "address"
        },
        {
          "indexed": false,
          "internalType": "uint256",
          "name": "proposalId",
          "type": "uint256"
        }
      ],
      "name": "Voted",
      "type": "event"
    },
    {
      "anonymous": false,
      "inputs": [
        {
          "indexed": false,
          "internalType": "address",
          "name": "voterAddress",
          "type": "address"
        }
      ],
      "name": "VoterRegistered",
      "type": "event"
    },
    {
      "anonymous": false,
      "inputs": [],
      "name": "VotesTallied",
      "type": "event"
    },
    {
      "anonymous": false,
      "inputs": [],
      "name": "VotingSessionEnded",
      "type": "event"
    },
    {
      "anonymous": false,
      "inputs": [],
      "name": "VotingSessionStarted",
      "type": "event"
    },
    {
      "anonymous": false,
      "inputs": [
        {
          "indexed": false,
          "internalType": "enum Voting.WorkflowStatus",
          "name": "previousStatus",
          "type": "uint8"
        },
        {
          "indexed": false,
          "internalType": "enum Voting.WorkflowStatus",
          "name": "newStatus",
          "type": "uint8"
        }
      ],
      "name": "WorkflowStatusChange",
      "type": "event"
    },
    {
      "inputs": [],
      "name": "owner",
      "outputs": [
        {
          "internalType": "address",
          "name": "",
          "type": "address"
        }
      ],
      "stateMutability": "view",
      "type": "function",
      "constant": true
    },
    {
      "inputs": [],
      "name": "renounceOwnership",
      "outputs": [],
      "stateMutability": "nonpayable",
      "type": "function"
    },
    {
      "inputs": [
        {
          "internalType": "address",
          "name": "newOwner",
          "type": "address"
        }
      ],
      "name": "transferOwnership",
      "outputs": [],
      "stateMutability": "nonpayable",
      "type": "function"
    },
    {
      "inputs": [],
      "name": "getWorkflowStatus",
      "outputs": [
        {
          "internalType": "enum Voting.WorkflowStatus",
          "name": "",
          "type": "uint8"
        }
      ],
      "stateMutability": "view",
      "type": "function",
      "constant": true
    },
    {
      "inputs": [
        {
          "internalType": "address",
          "name": "_address",
          "type": "address"
        }
      ],
      "name": "registerVoter",
      "outputs": [],
      "stateMutability": "nonpayable",
      "type": "function"
    },
    {
      "inputs": [
        {
          "internalType": "address",
          "name": "_address",
          "type": "address"
        }
      ],
      "name": "isRegisteredVoter",
      "outputs": [
        {
          "internalType": "bool",
          "name": "",
          "type": "bool"
        }
      ],
      "stateMutability": "view",
      "type": "function",
      "constant": true
    },
    {
      "inputs": [],
      "name": "getRegisteredVotersAddresses",
      "outputs": [
        {
          "internalType": "address[]",
          "name": "",
          "type": "address[]"
        }
      ],
      "stateMutability": "view",
      "type": "function",
      "constant": true
    },
    {
      "inputs": [],
      "name": "startProposalRegistration",
      "outputs": [],
      "stateMutability": "nonpayable",
      "type": "function"
    },
    {
      "inputs": [
        {
          "internalType": "string",
          "name": "_description",
          "type": "string"
        }
      ],
      "name": "addProposal",
      "outputs": [],
      "stateMutability": "nonpayable",
      "type": "function"
    },
    {
      "inputs": [],
      "name": "getProposals",
      "outputs": [
        {
          "components": [
            {
              "internalType": "string",
              "name": "description",
              "type": "string"
            },
            {
              "internalType": "uint256",
              "name": "voteCount",
              "type": "uint256"
            }
          ],
          "internalType": "struct Voting.Proposal[]",
          "name": "",
          "type": "tuple[]"
        }
      ],
      "stateMutability": "view",
      "type": "function",
      "constant": true
    },
    {
      "inputs": [],
      "name": "endProposalRegistration",
      "outputs": [],
      "stateMutability": "nonpayable",
      "type": "function"
    },
    {
      "inputs": [],
      "name": "startVotingSession",
      "outputs": [],
      "stateMutability": "nonpayable",
      "type": "function"
    },
    {
      "inputs": [
        {
          "internalType": "uint256",
          "name": "_proposalId",
          "type": "uint256"
        }
      ],
      "name": "vote",
      "outputs": [],
      "stateMutability": "nonpayable",
      "type": "function"
    },
    {
      "inputs": [
        {
          "internalType": "address",
          "name": "_address",
          "type": "address"
        }
      ],
      "name": "hasVoted",
      "outputs": [
        {
          "internalType": "bool",
          "name": "",
          "type": "bool"
        }
      ],
      "stateMutability": "view",
      "type": "function",
      "constant": true
    },
    {
      "inputs": [],
      "name": "endVotingSession",
      "outputs": [],
      "stateMutability": "nonpayable",
      "type": "function"
    },
    {
      "inputs": [],
      "name": "countVotes",
      "outputs": [],
      "stateMutability": "nonpayable",
      "type": "function"
    },
    {
      "inputs": [],
      "name": "getWinningProposalId",
      "outputs": [
        {
          "internalType": "uint256",
          "name": "",
          "type": "uint256"
        }
      ],
      "stateMutability": "view",
      "type": "function",
      "constant": true
    }
  ],
  "bytecode": "0x60806040523480156200001157600080fd5b5062000032620000266200003860201b60201c565b6200004060201b60201c565b62000104565b600033905090565b60008060009054906101000a900473ffffffffffffffffffffffffffffffffffffffff169050816000806101000a81548173ffffffffffffffffffffffffffffffffffffffff021916908373ffffffffffffffffffffffffffffffffffffffff1602179055508173ffffffffffffffffffffffffffffffffffffffff168173ffffffffffffffffffffffffffffffffffffffff167f8be0079c531659141344cd1fd0a4f28419497f9722a3daafe3b4186f6b6457e060405160405180910390a35050565b61289880620001146000396000f3fe608060405234801561001057600080fd5b506004361061010b5760003560e01c80638da5cb5b116100a2578063e81e977b11610071578063e81e977b14610246578063e85a8f2a14610264578063ee74c6781461026e578063f2fde38b14610278578063f75d64a6146102945761010b565b80638da5cb5b146101e4578063a7bfab1614610202578063b647990a1461020c578063da36cffe146102165761010b565b806338db6dd3116100de57806338db6dd31461018257806362564c481461019e578063715018a6146101bc57806389eab6bb146101c65761010b565b80630121b93f1461011057806309eef43e1461012c5780630f7e28381461015c5780632fdae3c514610166575b600080fd5b61012a60048036038101906101259190611c01565b6102b2565b005b61014660048036038101906101419190611b97565b61058b565b6040516101539190612285565b60405180910390f35b6101646105e4565b005b610180600480360381019061017b9190611bc0565b61076b565b005b61019c60048036038101906101979190611b97565b610a33565b005b6101a6610c8d565b6040516101b39190612263565b60405180910390f35b6101c4610d88565b005b6101ce610e10565b6040516101db9190612241565b60405180910390f35b6101ec610f1a565b6040516101f991906121fd565b60405180910390f35b61020a610f43565b005b6102146110b7565b005b610230600480360381019061022b9190611b97565b6112fa565b60405161023d9190612285565b60405180910390f35b61024e611353565b60405161025b9190612464565b60405180910390f35b61026c61141e565b005b6102766115db565b005b610292600480360381019061028d9190611b97565b61174f565b005b61029c611847565b6040516102a991906122a0565b60405180910390f35b6102bb336112fa565b6102fa576040517f08c379a00000000000000000000000000000000000000000000000000000000081526004016102f190612364565b60405180910390fd5b60036005811115610334577f4e487b7100000000000000000000000000000000000000000000000000000000600052602160045260246000fd5b600060149054906101000a900460ff16600581111561037c577f4e487b7100000000000000000000000000000000000000000000000000000000600052602160045260246000fd5b146103bc576040517f08c379a00000000000000000000000000000000000000000000000000000000081526004016103b3906123a4565b60405180910390fd5b600460003373ffffffffffffffffffffffffffffffffffffffff1673ffffffffffffffffffffffffffffffffffffffff16815260200190815260200160002060000160019054906101000a900460ff161561044c576040517f08c379a000000000000000000000000000000000000000000000000000000000815260040161044390612444565b60405180910390fd5b6001600460003373ffffffffffffffffffffffffffffffffffffffff1673ffffffffffffffffffffffffffffffffffffffff16815260200190815260200160002060000160016101000a81548160ff02191690831515021790555080600460003373ffffffffffffffffffffffffffffffffffffffff1673ffffffffffffffffffffffffffffffffffffffff1681526020019081526020016000206001018190555060018181548110610528577f4e487b7100000000000000000000000000000000000000000000000000000000600052603260045260246000fd5b9060005260206000209060020201600101600081548092919061054a9061270a565b91905055507f4d99b957a2bc29a30ebd96a7be8e68fe50a3c701db28a91436490b7d53870ca43382604051610580929190612218565b60405180910390a150565b6000600460008373ffffffffffffffffffffffffffffffffffffffff1673ffffffffffffffffffffffffffffffffffffffff16815260200190815260200160002060000160019054906101000a900460ff169050919050565b6105ec61185d565b73ffffffffffffffffffffffffffffffffffffffff1661060a610f1a565b73ffffffffffffffffffffffffffffffffffffffff1614610660576040517f08c379a0000000000000000000000000000000000000000000000000000000008152600401610657906123c4565b60405180910390fd5b600060038054905014156106a9576040517f08c379a00000000000000000000000000000000000000000000000000000000081526004016106a0906123e4565b60405180910390fd5b600060058111156106e3577f4e487b7100000000000000000000000000000000000000000000000000000000600052602160045260246000fd5b600060149054906101000a900460ff16600581111561072b577f4e487b7100000000000000000000000000000000000000000000000000000000600052602160045260246000fd5b1461073557600080fd5b61073d611865565b7f344c25562921d075a298d34b6dd1fd00d36ff293974539dfd4a8c625d9f0064c60405160405180910390a1565b610774336112fa565b6107b3576040517f08c379a00000000000000000000000000000000000000000000000000000000081526004016107aa90612364565b60405180910390fd5b600160058111156107ed577f4e487b7100000000000000000000000000000000000000000000000000000000600052602160045260246000fd5b600060149054906101000a900460ff166005811115610835577f4e487b7100000000000000000000000000000000000000000000000000000000600052602160045260246000fd5b14610875576040517f08c379a000000000000000000000000000000000000000000000000000000000815260040161086c90612384565b60405180910390fd5b6000805b60018054905081101561093c578260405160200161089791906121cf565b60405160208183030381529060405280519060200120600182815481106108e7577f4e487b7100000000000000000000000000000000000000000000000000000000600052603260045260246000fd5b906000526020600020906002020160000160405160200161090891906121e6565b60405160208183030381529060405280519060200120141561092957600191505b80806109349061270a565b915050610879565b50801561097e576040517f08c379a000000000000000000000000000000000000000000000000000000000815260040161097590612344565b60405180910390fd5b600160405180604001604052808481526020016000815250908060018154018082558091505060019003906000526020600020906002020160009091909190915060008201518160000190805190602001906109db929190611a62565b506020820151816001015550507f92e393e9b54e2f801d3ea4beb0c5e71a21cc34a5d34b77d0fb8a3aa1650dc18f60018080549050610a1a91906125f5565b604051610a279190612464565b60405180910390a15050565b610a3b61185d565b73ffffffffffffffffffffffffffffffffffffffff16610a59610f1a565b73ffffffffffffffffffffffffffffffffffffffff1614610aaf576040517f08c379a0000000000000000000000000000000000000000000000000000000008152600401610aa6906123c4565b60405180910390fd5b60006005811115610ae9577f4e487b7100000000000000000000000000000000000000000000000000000000600052602160045260246000fd5b600060149054906101000a900460ff166005811115610b31577f4e487b7100000000000000000000000000000000000000000000000000000000600052602160045260246000fd5b14610b3b57600080fd5b600460008273ffffffffffffffffffffffffffffffffffffffff1673ffffffffffffffffffffffffffffffffffffffff16815260200190815260200160002060000160009054906101000a900460ff1615610b9557600080fd5b6001600460008373ffffffffffffffffffffffffffffffffffffffff1673ffffffffffffffffffffffffffffffffffffffff16815260200190815260200160002060000160006101000a81548160ff0219169083151502179055506003819080600181540180825580915050600190039060005260206000200160009091909190916101000a81548173ffffffffffffffffffffffffffffffffffffffff021916908373ffffffffffffffffffffffffffffffffffffffff1602179055507fb6be2187d059cc2a55fe29e0e503b566e1e0f8c8780096e185429350acffd3dd81604051610c8291906121fd565b60405180910390a150565b60606001805480602002602001604051908101604052809291908181526020016000905b82821015610d7f5783829060005260206000209060020201604051806040016040529081600082018054610ce4906126d8565b80601f0160208091040260200160405190810160405280929190818152602001828054610d10906126d8565b8015610d5d5780601f10610d3257610100808354040283529160200191610d5d565b820191906000526020600020905b815481529060010190602001808311610d4057829003601f168201915b5050505050815260200160018201548152505081526020019060010190610cb1565b50505050905090565b610d9061185d565b73ffffffffffffffffffffffffffffffffffffffff16610dae610f1a565b73ffffffffffffffffffffffffffffffffffffffff1614610e04576040517f08c379a0000000000000000000000000000000000000000000000000000000008152600401610dfb906123c4565b60405180910390fd5b610e0e600061199e565b565b6060610e1a61185d565b73ffffffffffffffffffffffffffffffffffffffff16610e38610f1a565b73ffffffffffffffffffffffffffffffffffffffff1614610e8e576040517f08c379a0000000000000000000000000000000000000000000000000000000008152600401610e85906123c4565b60405180910390fd5b6003805480602002602001604051908101604052809291908181526020018280548015610f1057602002820191906000526020600020905b8160009054906101000a900473ffffffffffffffffffffffffffffffffffffffff1673ffffffffffffffffffffffffffffffffffffffff1681526020019060010190808311610ec6575b5050505050905090565b60008060009054906101000a900473ffffffffffffffffffffffffffffffffffffffff16905090565b610f4b61185d565b73ffffffffffffffffffffffffffffffffffffffff16610f69610f1a565b73ffffffffffffffffffffffffffffffffffffffff1614610fbf576040517f08c379a0000000000000000000000000000000000000000000000000000000008152600401610fb6906123c4565b60405180910390fd5b60036005811115610ff9577f4e487b7100000000000000000000000000000000000000000000000000000000600052602160045260246000fd5b600060149054906101000a900460ff166005811115611041577f4e487b7100000000000000000000000000000000000000000000000000000000600052602160045260246000fd5b14611081576040517f08c379a0000000000000000000000000000000000000000000000000000000008152600401611078906123a4565b60405180910390fd5b611089611865565b7fc379d349a6301baf50fb2f98d829f4ae10b1cdb7c66f4e4d8117302df7b8cd4c60405160405180910390a1565b6110bf61185d565b73ffffffffffffffffffffffffffffffffffffffff166110dd610f1a565b73ffffffffffffffffffffffffffffffffffffffff1614611133576040517f08c379a000000000000000000000000000000000000000000000000000000000815260040161112a906123c4565b60405180910390fd5b6004600581111561116d577f4e487b7100000000000000000000000000000000000000000000000000000000600052602160045260246000fd5b600060149054906101000a900460ff1660058111156111b5577f4e487b7100000000000000000000000000000000000000000000000000000000600052602160045260246000fd5b146111f5576040517f08c379a00000000000000000000000000000000000000000000000000000000081526004016111ec90612324565b60405180910390fd5b6000805b6001805490508110156112c2578160018281548110611241577f4e487b7100000000000000000000000000000000000000000000000000000000600052603260045260246000fd5b90600052602060002090600202016001015411156112af5760018181548110611293577f4e487b7100000000000000000000000000000000000000000000000000000000600052603260045260246000fd5b9060005260206000209060020201600101549150806002819055505b80806112ba9061270a565b9150506111f9565b506112cb611865565b7f0e5e95ff8725ab3e7a4b6b59998a4c344c2aa8d1485f5e60cb7f337768e6134760405160405180910390a150565b6000600460008373ffffffffffffffffffffffffffffffffffffffff1673ffffffffffffffffffffffffffffffffffffffff16815260200190815260200160002060000160009054906101000a900460ff169050919050565b600060058081111561138e577f4e487b7100000000000000000000000000000000000000000000000000000000600052602160045260246000fd5b600060149054906101000a900460ff1660058111156113d6577f4e487b7100000000000000000000000000000000000000000000000000000000600052602160045260246000fd5b14611416576040517f08c379a000000000000000000000000000000000000000000000000000000000815260040161140d90612304565b60405180910390fd5b600254905090565b61142661185d565b73ffffffffffffffffffffffffffffffffffffffff16611444610f1a565b73ffffffffffffffffffffffffffffffffffffffff161461149a576040517f08c379a0000000000000000000000000000000000000000000000000000000008152600401611491906123c4565b60405180910390fd5b600160058111156114d4577f4e487b7100000000000000000000000000000000000000000000000000000000600052602160045260246000fd5b600060149054906101000a900460ff16600581111561151c577f4e487b7100000000000000000000000000000000000000000000000000000000600052602160045260246000fd5b1461155c576040517f08c379a000000000000000000000000000000000000000000000000000000000815260040161155390612384565b60405180910390fd5b600060018054905014156115a5576040517f08c379a000000000000000000000000000000000000000000000000000000000815260040161159c90612404565b60405180910390fd5b6115ad611865565b7f240cb87b2e4df4c318e72bd714d45a9cad60249e883ff56b1fffd83a4595a8fa60405160405180910390a1565b6115e361185d565b73ffffffffffffffffffffffffffffffffffffffff16611601610f1a565b73ffffffffffffffffffffffffffffffffffffffff1614611657576040517f08c379a000000000000000000000000000000000000000000000000000000000815260040161164e906123c4565b60405180910390fd5b60026005811115611691577f4e487b7100000000000000000000000000000000000000000000000000000000600052602160045260246000fd5b600060149054906101000a900460ff1660058111156116d9577f4e487b7100000000000000000000000000000000000000000000000000000000600052602160045260246000fd5b14611719576040517f08c379a000000000000000000000000000000000000000000000000000000000815260040161171090612424565b60405180910390fd5b611721611865565b7f1b8e19a458c1bcd88553332c518cc5c4e2d5793e712ee766d4f1c14f672ef1f560405160405180910390a1565b61175761185d565b73ffffffffffffffffffffffffffffffffffffffff16611775610f1a565b73ffffffffffffffffffffffffffffffffffffffff16146117cb576040517f08c379a00000000000000000000000000000000000000000000000000000000081526004016117c2906123c4565b60405180910390fd5b600073ffffffffffffffffffffffffffffffffffffffff168173ffffffffffffffffffffffffffffffffffffffff16141561183b576040517f08c379a0000000000000000000000000000000000000000000000000000000008152600401611832906122e4565b60405180910390fd5b6118448161199e565b50565b60008060149054906101000a900460ff16905090565b600033905090565b60008060149054906101000a900460ff1690506001600060149054906101000a900460ff1660058111156118c2577f4e487b7100000000000000000000000000000000000000000000000000000000600052602160045260246000fd5b6118cc919061259f565b6005811115611904577f4e487b7100000000000000000000000000000000000000000000000000000000600052602160045260246000fd5b600060146101000a81548160ff0219169083600581111561194e577f4e487b7100000000000000000000000000000000000000000000000000000000600052602160045260246000fd5b02179055507f0a97a4ee45751e2abf3e4fc8946939630b11b371ea8ae39ccdc3056e98f5cc3f81600060149054906101000a900460ff166040516119939291906122bb565b60405180910390a150565b60008060009054906101000a900473ffffffffffffffffffffffffffffffffffffffff169050816000806101000a81548173ffffffffffffffffffffffffffffffffffffffff021916908373ffffffffffffffffffffffffffffffffffffffff1602179055508173ffffffffffffffffffffffffffffffffffffffff168173ffffffffffffffffffffffffffffffffffffffff167f8be0079c531659141344cd1fd0a4f28419497f9722a3daafe3b4186f6b6457e060405160405180910390a35050565b828054611a6e906126d8565b90600052602060002090601f016020900481019282611a905760008555611ad7565b82601f10611aa957805160ff1916838001178555611ad7565b82800160010185558215611ad7579182015b82811115611ad6578251825591602001919060010190611abb565b5b509050611ae49190611ae8565b5090565b5b80821115611b01576000816000905550600101611ae9565b5090565b6000611b18611b13846124b0565b61247f565b905082815260208101848484011115611b3057600080fd5b611b3b848285612696565b509392505050565b600081359050611b5281612834565b92915050565b600082601f830112611b6957600080fd5b8135611b79848260208601611b05565b91505092915050565b600081359050611b918161284b565b92915050565b600060208284031215611ba957600080fd5b6000611bb784828501611b43565b91505092915050565b600060208284031215611bd257600080fd5b600082013567ffffffffffffffff811115611bec57600080fd5b611bf884828501611b58565b91505092915050565b600060208284031215611c1357600080fd5b6000611c2184828501611b82565b91505092915050565b6000611c368383611c56565b60208301905092915050565b6000611c4e8383612174565b905092915050565b611c5f81612629565b82525050565b611c6e81612629565b82525050565b6000611c7f82612515565b611c898185612550565b9350611c94836124e0565b8060005b83811015611cc5578151611cac8882611c2a565b9750611cb783612536565b925050600181019050611c98565b5085935050505092915050565b6000611cdd82612520565b611ce78185612561565b935083602082028501611cf9856124f0565b8060005b85811015611d355784840389528151611d168582611c42565b9450611d2183612543565b925060208a01995050600181019050611cfd565b50829750879550505050505092915050565b611d508161263b565b82525050565b611d5f81612684565b82525050565b6000611d708261252b565b611d7a8185612572565b9350611d8a8185602086016126a5565b611d938161280f565b840191505092915050565b6000611da98261252b565b611db38185612594565b9350611dc38185602086016126a5565b80840191505092915050565b60008154611ddc816126d8565b611de68186612594565b94506001821660008114611e015760018114611e1257611e45565b60ff19831686528186019350611e45565b611e1b85612500565b60005b83811015611e3d57815481890152600182019150602081019050611e1e565b838801955050505b50505092915050565b6000611e5b602683612583565b91507f4f776e61626c653a206e6577206f776e657220697320746865207a65726f206160008301527f64647265737300000000000000000000000000000000000000000000000000006020830152604082019050919050565b6000611ec1601183612583565b91507f566f746573206e6f742074616c6c6965640000000000000000000000000000006000830152602082019050919050565b6000611f01601883612583565b91507f566f74696e672073657373696f6e206e6f7420656e64656400000000000000006000830152602082019050919050565b6000611f41601783612583565b91507f50726f706f73616c20616c7265616479206578697374730000000000000000006000830152602082019050919050565b6000611f81601483612583565b91507f566f746572206e6f7420726567697374657265640000000000000000000000006000830152602082019050919050565b6000611fc1601883612583565b91507f526567697374726174696f6e206e6f74207374617274656400000000000000006000830152602082019050919050565b6000612001601a83612583565b91507f566f74696e672073657373696f6e206e6f7420737461727465640000000000006000830152602082019050919050565b6000612041602083612583565b91507f4f776e61626c653a2063616c6c6572206973206e6f7420746865206f776e65726000830152602082019050919050565b6000612081601483612583565b91507f4e6f207265676973746572656420766f746572730000000000000000000000006000830152602082019050919050565b60006120c1600b83612583565b91507f4e6f2070726f706f73616c0000000000000000000000000000000000000000006000830152602082019050919050565b6000612101601683612583565b91507f526567697374726174696f6e206e6f7420656e646564000000000000000000006000830152602082019050919050565b6000612141601683612583565b91507f596f75206861766520616c726561647920766f746564000000000000000000006000830152602082019050919050565b600060408301600083015184820360008601526121918282611d65565b91505060208301516121a660208601826121b1565b508091505092915050565b6121ba8161267a565b82525050565b6121c98161267a565b82525050565b60006121db8284611d9e565b915081905092915050565b60006121f28284611dcf565b915081905092915050565b60006020820190506122126000830184611c65565b92915050565b600060408201905061222d6000830185611c65565b61223a60208301846121c0565b9392505050565b6000602082019050818103600083015261225b8184611c74565b905092915050565b6000602082019050818103600083015261227d8184611cd2565b905092915050565b600060208201905061229a6000830184611d47565b92915050565b60006020820190506122b56000830184611d56565b92915050565b60006040820190506122d06000830185611d56565b6122dd6020830184611d56565b9392505050565b600060208201905081810360008301526122fd81611e4e565b9050919050565b6000602082019050818103600083015261231d81611eb4565b9050919050565b6000602082019050818103600083015261233d81611ef4565b9050919050565b6000602082019050818103600083015261235d81611f34565b9050919050565b6000602082019050818103600083015261237d81611f74565b9050919050565b6000602082019050818103600083015261239d81611fb4565b9050919050565b600060208201905081810360008301526123bd81611ff4565b9050919050565b600060208201905081810360008301526123dd81612034565b9050919050565b600060208201905081810360008301526123fd81612074565b9050919050565b6000602082019050818103600083015261241d816120b4565b9050919050565b6000602082019050818103600083015261243d816120f4565b9050919050565b6000602082019050818103600083015261245d81612134565b9050919050565b600060208201905061247960008301846121c0565b92915050565b6000604051905081810181811067ffffffffffffffff821117156124a6576124a56127e0565b5b8060405250919050565b600067ffffffffffffffff8211156124cb576124ca6127e0565b5b601f19601f8301169050602081019050919050565b6000819050602082019050919050565b6000819050602082019050919050565b60008190508160005260206000209050919050565b600081519050919050565b600081519050919050565b600081519050919050565b6000602082019050919050565b6000602082019050919050565b600082825260208201905092915050565b600082825260208201905092915050565b600082825260208201905092915050565b600082825260208201905092915050565b600081905092915050565b60006125aa8261267a565b91506125b58361267a565b9250827fffffffffffffffffffffffffffffffffffffffffffffffffffffffffffffffff038211156125ea576125e9612753565b5b828201905092915050565b60006126008261267a565b915061260b8361267a565b92508282101561261e5761261d612753565b5b828203905092915050565b60006126348261265a565b9050919050565b60008115159050919050565b600081905061265582612820565b919050565b600073ffffffffffffffffffffffffffffffffffffffff82169050919050565b6000819050919050565b600061268f82612647565b9050919050565b82818337600083830152505050565b60005b838110156126c35780820151818401526020810190506126a8565b838111156126d2576000848401525b50505050565b600060028204905060018216806126f057607f821691505b60208210811415612704576127036127b1565b5b50919050565b60006127158261267a565b91507fffffffffffffffffffffffffffffffffffffffffffffffffffffffffffffffff82141561274857612747612753565b5b600182019050919050565b7f4e487b7100000000000000000000000000000000000000000000000000000000600052601160045260246000fd5b7f4e487b7100000000000000000000000000000000000000000000000000000000600052602160045260246000fd5b7f4e487b7100000000000000000000000000000000000000000000000000000000600052602260045260246000fd5b7f4e487b7100000000000000000000000000000000000000000000000000000000600052604160045260246000fd5b6000601f19601f8301169050919050565b6006811061283157612830612782565b5b50565b61283d81612629565b811461284857600080fd5b50565b6128548161267a565b811461285f57600080fd5b5056fea2646970667358221220c72f4b87b2ac740b205f1bb2b40314b509d43246b60ad301fccb7ded8c98249f64736f6c63430008000033",
  "immutableReferences": {},
  "source": "// SPDX-License-Identifier: MIT\npragma solidity 0.8.0;\n\nimport \"@openzeppelin/contracts/access/Ownable.sol\";\n\n/**\n * @title voting\n * @author moa\n * @notice a notice for users\n * @dev for developers\n */\ncontract Voting is Ownable {\n  struct Voter {\n    bool isRegistered;\n    bool hasVoted;\n    uint votedProposalId;\n  }\n\n  struct Proposal {\n    string description;\n    uint voteCount;\n  }\n\n  enum WorkflowStatus {\n    RegisteringVoters,\n    ProposalsRegistrationStarted,\n    ProposalsRegistrationEnded,\n    VotingSessionStarted,\n    VotingSessionEnded,\n    VotesTallied\n  }\n\n  WorkflowStatus private workflowStatus;\n  Proposal[] private proposals;\n  uint private winningProposalId;\n  address[] private registeredVotersAddresses;\n\n  mapping(address => Voter) private voters;\n\n  event VoterRegistered(address voterAddress);\n  event ProposalsRegistrationStarted();\n  event ProposalsRegistrationEnded();\n  event ProposalRegistered(uint proposalId);\n  event VotingSessionStarted();\n  event VotingSessionEnded();\n  event Voted (address voter, uint proposalId);\n  event VotesTallied();\n  event WorkflowStatusChange(WorkflowStatus previousStatus, WorkflowStatus newStatus);\n\n  //modifier\n\n  //constructor\n\n\n  function nextWorkflowStatus() internal {\n    WorkflowStatus oldStatus = workflowStatus;\n\n    workflowStatus = WorkflowStatus(uint(workflowStatus) + 1);\n\n    emit WorkflowStatusChange(oldStatus, workflowStatus);\n  }\n\n  function getWorkflowStatus() public view returns(WorkflowStatus) {\n    return workflowStatus;\n  }\n\n  /**\n   * @notice To register a new voter. Only owner can do this. Emit VoterRegistered event when done.\n   * @dev Addresses are also stored in registeredVotersAddresses\n   * @param _address is new voter address to register\n   */\n  function registerVoter(address _address) public onlyOwner {\n    require(workflowStatus == WorkflowStatus.RegisteringVoters);\n    require(!voters[_address].isRegistered);\n\n    voters[_address].isRegistered = true;\n    registeredVotersAddresses.push(_address);\n\n    emit VoterRegistered(_address);\n  }\n\n  function isRegisteredVoter(address _address) public view returns(bool) {\n    return voters[_address].isRegistered;\n  }\n\n  function getRegisteredVotersAddresses() public view onlyOwner returns(address[] memory) {\n    return registeredVotersAddresses;\n  }\n\n  function startProposalRegistration() public onlyOwner {\n    require(registeredVotersAddresses.length != 0, \"No registered voters\");\n    require(workflowStatus == WorkflowStatus.RegisteringVoters);\n\n    nextWorkflowStatus();\n\n    emit ProposalsRegistrationStarted();\n  }\n\n\n  function addProposal(string memory _description) public {\n    require(isRegisteredVoter(msg.sender), \"Voter not registered\");\n    require(workflowStatus == WorkflowStatus.ProposalsRegistrationStarted, \"Registration not started\");\n\n    bool isProposalExists;\n    for (uint proposalId; proposalId < proposals.length; proposalId++) {\n      if (keccak256(abi.encodePacked(proposals[proposalId].description)) == keccak256(abi.encodePacked(_description))) {\n        isProposalExists = true;\n      }\n    }\n\n    require(!isProposalExists, \"Proposal already exists\");\n\n    proposals.push(Proposal({\n    description: _description,\n    voteCount: 0\n    }));\n\n    emit ProposalRegistered(proposals.length - 1);\n  }\n\n  function getProposals() public view returns(Proposal[] memory) {\n    return proposals;\n  }\n\n  function endProposalRegistration() public onlyOwner {\n    require(workflowStatus == WorkflowStatus.ProposalsRegistrationStarted, \"Registration not started\");\n    require(proposals.length != 0, \"No proposal\");\n\n    nextWorkflowStatus();\n\n    emit ProposalsRegistrationEnded();\n  }\n\n  function startVotingSession() public onlyOwner {\n    require(workflowStatus == WorkflowStatus.ProposalsRegistrationEnded, \"Registration not ended\");\n\n    nextWorkflowStatus();\n\n    emit VotingSessionStarted();\n  }\n\n  function vote(uint _proposalId) public {\n    require(isRegisteredVoter(msg.sender), \"Voter not registered\");\n    require(workflowStatus == WorkflowStatus.VotingSessionStarted, \"Voting session not started\");\n    require(!voters[msg.sender].hasVoted, \"You have already voted\");\n\n    voters[msg.sender].hasVoted = true;\n    voters[msg.sender].votedProposalId = _proposalId;\n    proposals[_proposalId].voteCount ++;\n\n    emit Voted(msg.sender, _proposalId);\n  }\n\n  function hasVoted(address _address) public view returns(bool) {\n    return voters[_address].hasVoted;\n  }\n\n  function endVotingSession() public onlyOwner {\n    require(workflowStatus == WorkflowStatus.VotingSessionStarted, \"Voting session not started\");\n\n    nextWorkflowStatus();\n\n    emit VotingSessionEnded();\n  }\n\n  function countVotes() public onlyOwner {\n    require(workflowStatus == WorkflowStatus.VotingSessionEnded, \"Voting session not ended\");\n\n    uint winningVoteCount;\n    for (uint proposalId; proposalId < proposals.length; proposalId++) {\n      if (proposals[proposalId].voteCount > winningVoteCount) {\n        winningVoteCount = proposals[proposalId].voteCount;\n        winningProposalId = proposalId;\n      }\n    }\n\n    nextWorkflowStatus();\n\n    emit VotesTallied();\n  }\n\n  function getWinningProposalId() public view returns(uint) {\n    require(workflowStatus == WorkflowStatus.VotesTallied, \"Votes not tallied\");\n\n    return winningProposalId;\n  }\n}\n",
  "sourcePath": "C:\\Users\\aaast\\Alyra\\voting-react-box\\contracts\\Voting.sol",
  "compiler": {
    "name": "solc",
    "version": "0.8.0+commit.c7dfd78e.Emscripten.clang"
  },
  "schemaVersion": "3.4.3",
  "updatedAt": "2021-11-17T13:27:45.745Z",
  "networkType": "ethereum",
  "devdoc": {
    "author": "moa",
    "details": "for developers",
    "kind": "dev",
    "methods": {
      "owner()": {
        "details": "Returns the address of the current owner."
      },
      "registerVoter(address)": {
        "details": "Addresses are also stored in registeredVotersAddresses",
        "params": {
          "_address": "is new voter address to register"
        }
      },
      "renounceOwnership()": {
        "details": "Leaves the contract without owner. It will not be possible to call `onlyOwner` functions anymore. Can only be called by the current owner. NOTE: Renouncing ownership will leave the contract without an owner, thereby removing any functionality that is only available to the owner."
      },
      "transferOwnership(address)": {
        "details": "Transfers ownership of the contract to a new account (`newOwner`). Can only be called by the current owner."
      }
    },
    "title": "voting",
    "version": 1
  },
  "userdoc": {
    "kind": "user",
    "methods": {
      "registerVoter(address)": {
        "notice": "To register a new voter. Only owner can do this. Emit VoterRegistered event when done."
      }
    },
    "notice": "a notice for users",
    "version": 1
  }
}